{
  "_format": "hh-sol-artifact-1",
  "contractName": "DopeDonuts",
  "sourceName": "contracts/DopeDonuts.sol",
  "abi": [
    {
      "inputs": [],
      "stateMutability": "nonpayable",
      "type": "constructor"
    },
    {
      "anonymous": false,
      "inputs": [
        {
          "indexed": true,
          "internalType": "address",
          "name": "owner",
          "type": "address"
        },
        {
          "indexed": true,
          "internalType": "address",
          "name": "approved",
          "type": "address"
        },
        {
          "indexed": true,
          "internalType": "uint256",
          "name": "tokenId",
          "type": "uint256"
        }
      ],
      "name": "Approval",
      "type": "event"
    },
    {
      "anonymous": false,
      "inputs": [
        {
          "indexed": true,
          "internalType": "address",
          "name": "owner",
          "type": "address"
        },
        {
          "indexed": true,
          "internalType": "address",
          "name": "operator",
          "type": "address"
        },
        {
          "indexed": false,
          "internalType": "bool",
          "name": "approved",
          "type": "bool"
        }
      ],
      "name": "ApprovalForAll",
      "type": "event"
    },
    {
      "anonymous": false,
      "inputs": [
        {
          "indexed": true,
          "internalType": "address",
          "name": "previousOwner",
          "type": "address"
        },
        {
          "indexed": true,
          "internalType": "address",
          "name": "newOwner",
          "type": "address"
        }
      ],
      "name": "OwnershipTransferred",
      "type": "event"
    },
    {
      "anonymous": false,
      "inputs": [
        {
          "indexed": false,
          "internalType": "bool",
          "name": "isActive",
          "type": "bool"
        }
      ],
      "name": "StateUpdate",
      "type": "event"
    },
    {
      "anonymous": false,
      "inputs": [
        {
          "indexed": true,
          "internalType": "address",
          "name": "from",
          "type": "address"
        },
        {
          "indexed": true,
          "internalType": "address",
          "name": "to",
          "type": "address"
        },
        {
          "indexed": true,
          "internalType": "uint256",
          "name": "tokenId",
          "type": "uint256"
        }
      ],
      "name": "Transfer",
      "type": "event"
    },
    {
      "inputs": [],
      "name": "MAX_SUPPLY",
      "outputs": [
        {
          "internalType": "uint256",
          "name": "",
          "type": "uint256"
        }
      ],
      "stateMutability": "view",
      "type": "function"
    },
    {
      "inputs": [],
      "name": "PRESALE_PRICE",
      "outputs": [
        {
          "internalType": "uint256",
          "name": "",
          "type": "uint256"
        }
      ],
      "stateMutability": "view",
      "type": "function"
    },
    {
      "inputs": [],
      "name": "PRICE",
      "outputs": [
        {
          "internalType": "uint256",
          "name": "",
          "type": "uint256"
        }
      ],
      "stateMutability": "view",
      "type": "function"
    },
    {
      "inputs": [
        {
          "internalType": "address",
          "name": "to",
          "type": "address"
        },
        {
          "internalType": "uint256",
          "name": "tokenId",
          "type": "uint256"
        }
      ],
      "name": "approve",
      "outputs": [],
      "stateMutability": "nonpayable",
      "type": "function"
    },
    {
      "inputs": [
        {
          "internalType": "address",
          "name": "owner",
          "type": "address"
        }
      ],
      "name": "balanceOf",
      "outputs": [
        {
          "internalType": "uint256",
          "name": "",
          "type": "uint256"
        }
      ],
      "stateMutability": "view",
      "type": "function"
    },
    {
      "inputs": [],
      "name": "baseURI",
      "outputs": [
        {
          "internalType": "string",
          "name": "",
          "type": "string"
        }
      ],
      "stateMutability": "view",
      "type": "function"
    },
    {
      "inputs": [
        {
          "internalType": "uint256",
          "name": "tokenId",
          "type": "uint256"
        }
      ],
      "name": "getApproved",
      "outputs": [
        {
          "internalType": "address",
          "name": "",
          "type": "address"
        }
      ],
      "stateMutability": "view",
      "type": "function"
    },
    {
      "inputs": [
        {
          "internalType": "address",
          "name": "_to",
          "type": "address"
        }
      ],
      "name": "giveAway",
      "outputs": [],
      "stateMutability": "nonpayable",
      "type": "function"
    },
    {
      "inputs": [],
      "name": "isActive",
      "outputs": [
        {
          "internalType": "bool",
          "name": "",
          "type": "bool"
        }
      ],
      "stateMutability": "view",
      "type": "function"
    },
    {
      "inputs": [
        {
          "internalType": "address",
          "name": "owner",
          "type": "address"
        },
        {
          "internalType": "address",
          "name": "operator",
          "type": "address"
        }
      ],
      "name": "isApprovedForAll",
      "outputs": [
        {
          "internalType": "bool",
          "name": "",
          "type": "bool"
        }
      ],
      "stateMutability": "view",
      "type": "function"
    },
    {
      "inputs": [],
      "name": "name",
      "outputs": [
        {
          "internalType": "string",
          "name": "",
          "type": "string"
        }
      ],
      "stateMutability": "view",
      "type": "function"
    },
    {
      "inputs": [],
      "name": "owner",
      "outputs": [
        {
          "internalType": "address",
          "name": "",
          "type": "address"
        }
      ],
      "stateMutability": "view",
      "type": "function"
    },
    {
      "inputs": [
        {
          "internalType": "uint256",
          "name": "tokenId",
          "type": "uint256"
        }
      ],
      "name": "ownerOf",
      "outputs": [
        {
          "internalType": "address",
          "name": "",
          "type": "address"
        }
      ],
      "stateMutability": "view",
      "type": "function"
    },
    {
      "inputs": [],
      "name": "publicMint",
      "outputs": [],
      "stateMutability": "payable",
      "type": "function"
    },
    {
      "inputs": [
        {
          "internalType": "contract IERC20",
          "name": "_token",
          "type": "address"
        }
      ],
      "name": "recoverToken",
      "outputs": [],
      "stateMutability": "nonpayable",
      "type": "function"
    },
    {
      "inputs": [],
      "name": "renounceOwnership",
      "outputs": [],
      "stateMutability": "nonpayable",
      "type": "function"
    },
    {
      "inputs": [
        {
          "internalType": "address",
          "name": "from",
          "type": "address"
        },
        {
          "internalType": "address",
          "name": "to",
          "type": "address"
        },
        {
          "internalType": "uint256",
          "name": "tokenId",
          "type": "uint256"
        }
      ],
      "name": "safeTransferFrom",
      "outputs": [],
      "stateMutability": "nonpayable",
      "type": "function"
    },
    {
      "inputs": [
        {
          "internalType": "address",
          "name": "from",
          "type": "address"
        },
        {
          "internalType": "address",
          "name": "to",
          "type": "address"
        },
        {
          "internalType": "uint256",
          "name": "tokenId",
          "type": "uint256"
        },
        {
          "internalType": "bytes",
          "name": "_data",
          "type": "bytes"
        }
      ],
      "name": "safeTransferFrom",
      "outputs": [],
      "stateMutability": "nonpayable",
      "type": "function"
    },
    {
      "inputs": [
        {
          "internalType": "address",
          "name": "operator",
          "type": "address"
        },
        {
          "internalType": "bool",
          "name": "approved",
          "type": "bool"
        }
      ],
      "name": "setApprovalForAll",
      "outputs": [],
      "stateMutability": "nonpayable",
      "type": "function"
    },
    {
      "inputs": [
        {
          "internalType": "string",
          "name": "_baseURI",
          "type": "string"
        }
      ],
      "name": "setBaseURI",
      "outputs": [],
      "stateMutability": "nonpayable",
      "type": "function"
    },
    {
      "inputs": [
        {
          "internalType": "bool",
          "name": "active",
          "type": "bool"
        }
      ],
      "name": "setSaleState",
      "outputs": [],
      "stateMutability": "nonpayable",
      "type": "function"
    },
    {
      "inputs": [
        {
          "internalType": "string",
          "name": "_uri",
          "type": "string"
        }
      ],
      "name": "setUnrevealedURI",
      "outputs": [],
      "stateMutability": "nonpayable",
      "type": "function"
    },
    {
      "inputs": [
        {
          "internalType": "bytes4",
          "name": "interfaceId",
          "type": "bytes4"
        }
      ],
      "name": "supportsInterface",
      "outputs": [
        {
          "internalType": "bool",
          "name": "",
          "type": "bool"
        }
      ],
      "stateMutability": "view",
      "type": "function"
    },
    {
      "inputs": [],
      "name": "symbol",
      "outputs": [
        {
          "internalType": "string",
          "name": "",
          "type": "string"
        }
      ],
      "stateMutability": "view",
      "type": "function"
    },
    {
      "inputs": [
        {
          "internalType": "uint256",
          "name": "index",
          "type": "uint256"
        }
      ],
      "name": "tokenByIndex",
      "outputs": [
        {
          "internalType": "uint256",
          "name": "",
          "type": "uint256"
        }
      ],
      "stateMutability": "view",
      "type": "function"
    },
    {
      "inputs": [
        {
          "internalType": "address",
          "name": "owner",
          "type": "address"
        },
        {
          "internalType": "uint256",
          "name": "index",
          "type": "uint256"
        }
      ],
      "name": "tokenOfOwnerByIndex",
      "outputs": [
        {
          "internalType": "uint256",
          "name": "",
          "type": "uint256"
        }
      ],
      "stateMutability": "view",
      "type": "function"
    },
    {
      "inputs": [
        {
          "internalType": "uint256",
          "name": "tokenId",
          "type": "uint256"
        }
      ],
      "name": "tokenURI",
      "outputs": [
        {
          "internalType": "string",
          "name": "",
          "type": "string"
        }
      ],
      "stateMutability": "view",
      "type": "function"
    },
    {
      "inputs": [],
      "name": "totalSupply",
      "outputs": [
        {
          "internalType": "uint256",
          "name": "",
          "type": "uint256"
        }
      ],
      "stateMutability": "view",
      "type": "function"
    },
    {
      "inputs": [
        {
          "internalType": "address",
          "name": "from",
          "type": "address"
        },
        {
          "internalType": "address",
          "name": "to",
          "type": "address"
        },
        {
          "internalType": "uint256",
          "name": "tokenId",
          "type": "uint256"
        }
      ],
      "name": "transferFrom",
      "outputs": [],
      "stateMutability": "nonpayable",
      "type": "function"
    },
    {
      "inputs": [
        {
          "internalType": "address",
          "name": "newOwner",
          "type": "address"
        }
      ],
      "name": "transferOwnership",
      "outputs": [],
      "stateMutability": "nonpayable",
      "type": "function"
    },
    {
      "inputs": [],
      "name": "unrevealedURI",
      "outputs": [
        {
          "internalType": "string",
          "name": "",
          "type": "string"
        }
      ],
      "stateMutability": "view",
      "type": "function"
    },
    {
      "inputs": [
        {
          "internalType": "address",
          "name": "_user",
          "type": "address"
        }
      ],
      "name": "whitelist",
      "outputs": [],
      "stateMutability": "nonpayable",
      "type": "function"
    },
    {
      "inputs": [],
      "name": "whitelistMint",
      "outputs": [],
      "stateMutability": "payable",
      "type": "function"
    },
    {
      "inputs": [],
      "name": "withdraw",
      "outputs": [],
      "stateMutability": "nonpayable",
      "type": "function"
    }
  ],
  "bytecode": "0x60e0604052603560808181529062002f1360a03980516200002991600b9160209091019062000147565b5060405180606001604052806035815260200162002ede6035913980516200005a91600c9160209091019062000147565b503480156200006857600080fd5b50604080518082018252600a815269446f7065446f6e75747360b01b6020808301918252835180850190945260058452641113d3955560da1b908401528151919291620000b89160009162000147565b508051620000ce90600190602084019062000147565b505050620000eb620000e5620000f160201b60201c565b620000f5565b6200022a565b3390565b600a80546001600160a01b038381166001600160a01b0319831681179093556040519116919082907f8be0079c531659141344cd1fd0a4f28419497f9722a3daafe3b4186f6b6457e090600090a35050565b8280546200015590620001ed565b90600052602060002090601f016020900481019282620001795760008555620001c4565b82601f106200019457805160ff1916838001178555620001c4565b82800160010185558215620001c4579182015b82811115620001c4578251825591602001919060010190620001a7565b50620001d2929150620001d6565b5090565b5b80821115620001d25760008155600101620001d7565b600181811c908216806200020257607f821691505b602082108114156200022457634e487b7160e01b600052602260045260246000fd5b50919050565b612ca4806200023a6000396000f3fe6080604052600436106102195760003560e01c80637035bf181161011d5780639be65a60116100b0578063c4e370951161007f578063e985e9c511610064578063e985e9c5146105a9578063f2fde38b146105f2578063fe2c7fee1461061257600080fd5b8063c4e3709514610569578063c87b56dd1461058957600080fd5b80639be65a60146104e95780639e24078514610509578063a22cb46514610529578063b88d4fde1461054957600080fd5b80638d859f3e116100ec5780638d859f3e1461047b5780638da5cb5b1461049657806395d89b41146104b45780639b19251a146104c957600080fd5b80637035bf181461042957806370a082311461043e578063715018a61461045e578063804f43cd1461047357600080fd5b80632f745c59116101b05780634f6ccce71161017f57806362dc6e211161016457806362dc6e21146103da5780636352211e146103f45780636c0360eb1461041457600080fd5b80634f6ccce71461039a57806355f804b3146103ba57600080fd5b80632f745c591461033057806332cb6b0c146103505780633ccfd60b1461036557806342842e0e1461037a57600080fd5b806318160ddd116101ec57806318160ddd146102cf57806322f3e2d4146102ee57806323b872dd1461030857806326092b831461032857600080fd5b806301ffc9a71461021e57806306fdde0314610253578063081812fc14610275578063095ea7b3146102ad575b600080fd5b34801561022a57600080fd5b5061023e610239366004612814565b610632565b60405190151581526020015b60405180910390f35b34801561025f57600080fd5b5061026861068e565b60405161024a9190612a6d565b34801561028157600080fd5b50610295610290366004612892565b610720565b6040516001600160a01b03909116815260200161024a565b3480156102b957600080fd5b506102cd6102c83660046127b1565b6107cb565b005b3480156102db57600080fd5b506008545b60405190815260200161024a565b3480156102fa57600080fd5b50600d5461023e9060ff1681565b34801561031457600080fd5b506102cd6103233660046126c7565b6108fd565b6102cd610984565b34801561033c57600080fd5b506102e061034b3660046127b1565b610a86565b34801561035c57600080fd5b506102e0606381565b34801561037157600080fd5b506102cd610b2e565b34801561038657600080fd5b506102cd6103953660046126c7565b610bbb565b3480156103a657600080fd5b506102e06103b5366004612892565b610bd6565b3480156103c657600080fd5b506102cd6103d536600461284c565b610ca1565b3480156103e657600080fd5b506102e0655af3107a400081565b34801561040057600080fd5b5061029561040f366004612892565b610d0e565b34801561042057600080fd5b50610268610d99565b34801561043557600080fd5b50610268610e27565b34801561044a57600080fd5b506102e061045936600461266c565b610e34565b34801561046a57600080fd5b506102cd610ece565b6102cd610f32565b34801561048757600080fd5b506102e066038d7ea4c6800081565b3480156104a257600080fd5b50600a546001600160a01b0316610295565b3480156104c057600080fd5b50610268611014565b3480156104d557600080fd5b506102cd6104e436600461266c565b611023565b3480156104f557600080fd5b506102cd61050436600461266c565b6110bf565b34801561051557600080fd5b506102cd61052436600461266c565b6112b8565b34801561053557600080fd5b506102cd610544366004612784565b61131e565b34801561055557600080fd5b506102cd610564366004612707565b611329565b34801561057557600080fd5b506102cd6105843660046127dc565b6113b7565b34801561059557600080fd5b506102686105a4366004612892565b611476565b3480156105b557600080fd5b5061023e6105c436600461268f565b6001600160a01b03918216600090815260056020908152604080832093909416825291909152205460ff1690565b3480156105fe57600080fd5b506102cd61060d36600461266c565b6115da565b34801561061e57600080fd5b506102cd61062d36600461284c565b6116b9565b60007fffffffff0000000000000000000000000000000000000000000000000000000082167f780e9d63000000000000000000000000000000000000000000000000000000001480610688575061068882611726565b92915050565b60606000805461069d90612aef565b80601f01602080910402602001604051908101604052809291908181526020018280546106c990612aef565b80156107165780601f106106eb57610100808354040283529160200191610716565b820191906000526020600020905b8154815290600101906020018083116106f957829003601f168201915b5050505050905090565b6000818152600260205260408120546001600160a01b03166107af5760405162461bcd60e51b815260206004820152602c60248201527f4552433732313a20617070726f76656420717565727920666f72206e6f6e657860448201527f697374656e7420746f6b656e000000000000000000000000000000000000000060648201526084015b60405180910390fd5b506000908152600460205260409020546001600160a01b031690565b60006107d682610d0e565b9050806001600160a01b0316836001600160a01b031614156108605760405162461bcd60e51b815260206004820152602160248201527f4552433732313a20617070726f76616c20746f2063757272656e74206f776e6560448201527f720000000000000000000000000000000000000000000000000000000000000060648201526084016107a6565b336001600160a01b038216148061087c575061087c81336105c4565b6108ee5760405162461bcd60e51b815260206004820152603860248201527f4552433732313a20617070726f76652063616c6c6572206973206e6f74206f7760448201527f6e6572206e6f7220617070726f76656420666f7220616c6c000000000000000060648201526084016107a6565b6108f88383611809565b505050565b610907338261188f565b6109795760405162461bcd60e51b815260206004820152603160248201527f4552433732313a207472616e736665722063616c6c6572206973206e6f74206f60448201527f776e6572206e6f7220617070726f76656400000000000000000000000000000060648201526084016107a6565b6108f8838383611997565b600d5460ff166109d65760405162461bcd60e51b815260206004820152601260248201527f53616c65206973206e6f7420616374697665000000000000000000000000000060448201526064016107a6565b66038d7ea4c680003414610a2c5760405162461bcd60e51b815260206004820152601860248201527f496e636f72726563742076616c756520737570706c696564000000000000000060448201526064016107a6565b323314610a7b5760405162461bcd60e51b815260206004820152601a60248201527f436f6e74726163742063616c6c73206e6f7420616c6c6f77656400000000000060448201526064016107a6565b610a8433611b87565b565b6000610a9183610e34565b8210610b055760405162461bcd60e51b815260206004820152602b60248201527f455243373231456e756d657261626c653a206f776e657220696e646578206f7560448201527f74206f6620626f756e647300000000000000000000000000000000000000000060648201526084016107a6565b506001600160a01b03919091166000908152600660209081526040808320938352929052205490565b600a546001600160a01b03163314610b885760405162461bcd60e51b815260206004820181905260248201527f4f776e61626c653a2063616c6c6572206973206e6f7420746865206f776e657260448201526064016107a6565b6040514790339082156108fc029083906000818181858888f19350505050158015610bb7573d6000803e3d6000fd5b5050565b6108f883838360405180602001604052806000815250611329565b6000610be160085490565b8210610c555760405162461bcd60e51b815260206004820152602c60248201527f455243373231456e756d657261626c653a20676c6f62616c20696e646578206f60448201527f7574206f6620626f756e6473000000000000000000000000000000000000000060648201526084016107a6565b60088281548110610c8f577f4e487b7100000000000000000000000000000000000000000000000000000000600052603260045260246000fd5b90600052602060002001549050919050565b600a546001600160a01b03163314610cfb5760405162461bcd60e51b815260206004820181905260248201527f4f776e61626c653a2063616c6c6572206973206e6f7420746865206f776e657260448201526064016107a6565b8051610bb790600c90602084019061253f565b6000818152600260205260408120546001600160a01b0316806106885760405162461bcd60e51b815260206004820152602960248201527f4552433732313a206f776e657220717565727920666f72206e6f6e657869737460448201527f656e7420746f6b656e000000000000000000000000000000000000000000000060648201526084016107a6565b600c8054610da690612aef565b80601f0160208091040260200160405190810160405280929190818152602001828054610dd290612aef565b8015610e1f5780601f10610df457610100808354040283529160200191610e1f565b820191906000526020600020905b815481529060010190602001808311610e0257829003601f168201915b505050505081565b600b8054610da690612aef565b60006001600160a01b038216610eb25760405162461bcd60e51b815260206004820152602a60248201527f4552433732313a2062616c616e636520717565727920666f7220746865207a6560448201527f726f20616464726573730000000000000000000000000000000000000000000060648201526084016107a6565b506001600160a01b031660009081526003602052604090205490565b600a546001600160a01b03163314610f285760405162461bcd60e51b815260206004820181905260248201527f4f776e61626c653a2063616c6c6572206973206e6f7420746865206f776e657260448201526064016107a6565b610a846000611bf1565b336000908152600e602052604090205460ff16610f915760405162461bcd60e51b815260206004820152601660248201527f43616c6c6572206e6f742077686974656c69737465640000000000000000000060448201526064016107a6565b336000818152600e6020526040902080547fffffffffffffffffffffffffffffffffffffffffffffffffffffffffffffff001690553214610a7b5760405162461bcd60e51b815260206004820152601a60248201527f436f6e74726163742063616c6c73206e6f7420616c6c6f77656400000000000060448201526064016107a6565b60606001805461069d90612aef565b600a546001600160a01b0316331461107d5760405162461bcd60e51b815260206004820181905260248201527f4f776e61626c653a2063616c6c6572206973206e6f7420746865206f776e657260448201526064016107a6565b6001600160a01b03166000908152600e6020526040902080547fffffffffffffffffffffffffffffffffffffffffffffffffffffffffffffff00166001179055565b600a546001600160a01b031633146111195760405162461bcd60e51b815260206004820181905260248201527f4f776e61626c653a2063616c6c6572206973206e6f7420746865206f776e657260448201526064016107a6565b6040517f70a082310000000000000000000000000000000000000000000000000000000081523060048201526000906001600160a01b038316906370a082319060240160206040518083038186803b15801561117457600080fd5b505afa158015611188573d6000803e3d6000fd5b505050506040513d601f19601f820116820180604052508101906111ac91906128aa565b90506000826001600160a01b031663a9059cbb6111d1600a546001600160a01b031690565b6040517fffffffff0000000000000000000000000000000000000000000000000000000060e084901b1681526001600160a01b03909116600482015260248101859052604401602060405180830381600087803b15801561123157600080fd5b505af1158015611245573d6000803e3d6000fd5b505050506040513d601f19601f8201168201806040525081019061126991906127f8565b9050806108f85760405162461bcd60e51b815260206004820152601e60248201527f546f6b656e20636f756c64206e6f74206265207472616e73666572726564000060448201526064016107a6565b600a546001600160a01b031633146113125760405162461bcd60e51b815260206004820181905260248201527f4f776e61626c653a2063616c6c6572206973206e6f7420746865206f776e657260448201526064016107a6565b61131b81611b87565b50565b610bb7338383611c5b565b611333338361188f565b6113a55760405162461bcd60e51b815260206004820152603160248201527f4552433732313a207472616e736665722063616c6c6572206973206e6f74206f60448201527f776e6572206e6f7220617070726f76656400000000000000000000000000000060648201526084016107a6565b6113b184848484611d48565b50505050565b600a546001600160a01b031633146114115760405162461bcd60e51b815260206004820181905260248201527f4f776e61626c653a2063616c6c6572206973206e6f7420746865206f776e657260448201526064016107a6565b600d80547fffffffffffffffffffffffffffffffffffffffffffffffffffffffffffffff00168215159081179091556040519081527f66de811963f882115fec2b9c23bff76236517492e199394703e721a8718181919060200160405180910390a150565b6000818152600260205260409020546060906001600160a01b03166115035760405162461bcd60e51b815260206004820152602f60248201527f4552433732314d657461646174613a2055524920717565727920666f72206e6f60448201527f6e6578697374656e7420746f6b656e000000000000000000000000000000000060648201526084016107a6565b6000600c805461151290612aef565b9050116115a957600b805461152690612aef565b80601f016020809104026020016040519081016040528092919081815260200182805461155290612aef565b801561159f5780601f106115745761010080835404028352916020019161159f565b820191906000526020600020905b81548152906001019060200180831161158257829003601f168201915b5050505050610688565b600c6115b483611dd1565b6040516020016115c5929190612928565b60405160208183030381529060405292915050565b600a546001600160a01b031633146116345760405162461bcd60e51b815260206004820181905260248201527f4f776e61626c653a2063616c6c6572206973206e6f7420746865206f776e657260448201526064016107a6565b6001600160a01b0381166116b05760405162461bcd60e51b815260206004820152602660248201527f4f776e61626c653a206e6577206f776e657220697320746865207a65726f206160448201527f646472657373000000000000000000000000000000000000000000000000000060648201526084016107a6565b61131b81611bf1565b600a546001600160a01b031633146117135760405162461bcd60e51b815260206004820181905260248201527f4f776e61626c653a2063616c6c6572206973206e6f7420746865206f776e657260448201526064016107a6565b8051610bb790600b90602084019061253f565b60007fffffffff0000000000000000000000000000000000000000000000000000000082167f80ac58cd0000000000000000000000000000000000000000000000000000000014806117b957507fffffffff0000000000000000000000000000000000000000000000000000000082167f5b5e139f00000000000000000000000000000000000000000000000000000000145b8061068857507f01ffc9a7000000000000000000000000000000000000000000000000000000007fffffffff00000000000000000000000000000000000000000000000000000000831614610688565b600081815260046020526040902080547fffffffffffffffffffffffff0000000000000000000000000000000000000000166001600160a01b038416908117909155819061185682610d0e565b6001600160a01b03167f8c5be1e5ebec7d5bd14f71427d1e84f3dd0314c0f7b2291e5b200ac8c7c3b92560405160405180910390a45050565b6000818152600260205260408120546001600160a01b03166119195760405162461bcd60e51b815260206004820152602c60248201527f4552433732313a206f70657261746f7220717565727920666f72206e6f6e657860448201527f697374656e7420746f6b656e000000000000000000000000000000000000000060648201526084016107a6565b600061192483610d0e565b9050806001600160a01b0316846001600160a01b0316148061195f5750836001600160a01b031661195484610720565b6001600160a01b0316145b8061198f57506001600160a01b0380821660009081526005602090815260408083209388168352929052205460ff165b949350505050565b826001600160a01b03166119aa82610d0e565b6001600160a01b031614611a265760405162461bcd60e51b815260206004820152602960248201527f4552433732313a207472616e73666572206f6620746f6b656e2074686174206960448201527f73206e6f74206f776e000000000000000000000000000000000000000000000060648201526084016107a6565b6001600160a01b038216611aa15760405162461bcd60e51b8152602060048201526024808201527f4552433732313a207472616e7366657220746f20746865207a65726f2061646460448201527f726573730000000000000000000000000000000000000000000000000000000060648201526084016107a6565b611aac838383611f51565b611ab7600082611809565b6001600160a01b0383166000908152600360205260408120805460019290611ae0908490612aac565b90915550506001600160a01b0382166000908152600360205260408120805460019290611b0e908490612a80565b909155505060008181526002602052604080822080547fffffffffffffffffffffffff0000000000000000000000000000000000000000166001600160a01b0386811691821790925591518493918716917fddf252ad1be2c89b69c2b068fc378daa952ba7f163c4a11628f55a4df523b3ef91a4505050565b6063611b9260085490565b10611bdf5760405162461bcd60e51b815260206004820152600e60248201527f4e6f20737570706c79206c65667400000000000000000000000000000000000060448201526064016107a6565b61131b81611bec60085490565b612009565b600a80546001600160a01b038381167fffffffffffffffffffffffff0000000000000000000000000000000000000000831681179093556040519116919082907f8be0079c531659141344cd1fd0a4f28419497f9722a3daafe3b4186f6b6457e090600090a35050565b816001600160a01b0316836001600160a01b03161415611cbd5760405162461bcd60e51b815260206004820152601960248201527f4552433732313a20617070726f766520746f2063616c6c65720000000000000060448201526064016107a6565b6001600160a01b0383811660008181526005602090815260408083209487168084529482529182902080547fffffffffffffffffffffffffffffffffffffffffffffffffffffffffffffff001686151590811790915591519182527f17307eab39ab6107e8899845ad3d59bd9653f200f220920489ca2b5937696c31910160405180910390a3505050565b611d53848484611997565b611d5f8484848461216f565b6113b15760405162461bcd60e51b815260206004820152603260248201527f4552433732313a207472616e7366657220746f206e6f6e20455243373231526560448201527f63656976657220696d706c656d656e746572000000000000000000000000000060648201526084016107a6565b606081611e1157505060408051808201909152600181527f3000000000000000000000000000000000000000000000000000000000000000602082015290565b8160005b8115611e3b5780611e2581612b43565b9150611e349050600a83612a98565b9150611e15565b60008167ffffffffffffffff811115611e7d577f4e487b7100000000000000000000000000000000000000000000000000000000600052604160045260246000fd5b6040519080825280601f01601f191660200182016040528015611ea7576020820181803683370190505b5090505b841561198f57611ebc600183612aac565b9150611ec9600a86612b7c565b611ed4906030612a80565b60f81b818381518110611f10577f4e487b7100000000000000000000000000000000000000000000000000000000600052603260045260246000fd5b60200101907effffffffffffffffffffffffffffffffffffffffffffffffffffffffffffff1916908160001a905350611f4a600a86612a98565b9450611eab565b6001600160a01b038316611fac57611fa781600880546000838152600960205260408120829055600182018355919091527ff3f7a9fe364faab93b216da50a3214154f22a0a2b415b23a84c8169e8b636ee30155565b611fcf565b816001600160a01b0316836001600160a01b031614611fcf57611fcf838261233a565b6001600160a01b038216611fe6576108f8816123d7565b826001600160a01b0316826001600160a01b0316146108f8576108f882826124fb565b6001600160a01b03821661205f5760405162461bcd60e51b815260206004820181905260248201527f4552433732313a206d696e7420746f20746865207a65726f206164647265737360448201526064016107a6565b6000818152600260205260409020546001600160a01b0316156120c45760405162461bcd60e51b815260206004820152601c60248201527f4552433732313a20746f6b656e20616c7265616479206d696e7465640000000060448201526064016107a6565b6120d060008383611f51565b6001600160a01b03821660009081526003602052604081208054600192906120f9908490612a80565b909155505060008181526002602052604080822080547fffffffffffffffffffffffff0000000000000000000000000000000000000000166001600160a01b03861690811790915590518392907fddf252ad1be2c89b69c2b068fc378daa952ba7f163c4a11628f55a4df523b3ef908290a45050565b60006001600160a01b0384163b1561232f576040517f150b7a020000000000000000000000000000000000000000000000000000000081526001600160a01b0385169063150b7a02906121cc903390899088908890600401612a31565b602060405180830381600087803b1580156121e657600080fd5b505af1925050508015612234575060408051601f3d9081017fffffffffffffffffffffffffffffffffffffffffffffffffffffffffffffffe016820190925261223191810190612830565b60015b6122e4573d808015612262576040519150601f19603f3d011682016040523d82523d6000602084013e612267565b606091505b5080516122dc5760405162461bcd60e51b815260206004820152603260248201527f4552433732313a207472616e7366657220746f206e6f6e20455243373231526560448201527f63656976657220696d706c656d656e746572000000000000000000000000000060648201526084016107a6565b805181602001fd5b7fffffffff00000000000000000000000000000000000000000000000000000000167f150b7a020000000000000000000000000000000000000000000000000000000014905061198f565b506001949350505050565b6000600161234784610e34565b6123519190612aac565b6000838152600760205260409020549091508082146123a4576001600160a01b03841660009081526006602090815260408083208584528252808320548484528184208190558352600790915290208190555b5060009182526007602090815260408084208490556001600160a01b039094168352600681528383209183525290812055565b6008546000906123e990600190612aac565b60008381526009602052604081205460088054939450909284908110612438577f4e487b7100000000000000000000000000000000000000000000000000000000600052603260045260246000fd5b906000526020600020015490508060088381548110612480577f4e487b7100000000000000000000000000000000000000000000000000000000600052603260045260246000fd5b60009182526020808320909101929092558281526009909152604080822084905585825281205560088054806124df577f4e487b7100000000000000000000000000000000000000000000000000000000600052603160045260246000fd5b6001900381819060005260206000200160009055905550505050565b600061250683610e34565b6001600160a01b039093166000908152600660209081526040808320868452825280832085905593825260079052919091209190915550565b82805461254b90612aef565b90600052602060002090601f01602090048101928261256d57600085556125b3565b82601f1061258657805160ff19168380011785556125b3565b828001600101855582156125b3579182015b828111156125b3578251825591602001919060010190612598565b506125bf9291506125c3565b5090565b5b808211156125bf57600081556001016125c4565b600067ffffffffffffffff808411156125f3576125f3612bee565b604051601f85017fffffffffffffffffffffffffffffffffffffffffffffffffffffffffffffffe0908116603f0116810190828211818310171561263957612639612bee565b8160405280935085815286868601111561265257600080fd5b858560208301376000602087830101525050509392505050565b60006020828403121561267d578081fd5b813561268881612c1d565b9392505050565b600080604083850312156126a1578081fd5b82356126ac81612c1d565b915060208301356126bc81612c1d565b809150509250929050565b6000806000606084860312156126db578081fd5b83356126e681612c1d565b925060208401356126f681612c1d565b929592945050506040919091013590565b6000806000806080858703121561271c578081fd5b843561272781612c1d565b9350602085013561273781612c1d565b925060408501359150606085013567ffffffffffffffff811115612759578182fd5b8501601f81018713612769578182fd5b612778878235602084016125d8565b91505092959194509250565b60008060408385031215612796578182fd5b82356127a181612c1d565b915060208301356126bc81612c32565b600080604083850312156127c3578182fd5b82356127ce81612c1d565b946020939093013593505050565b6000602082840312156127ed578081fd5b813561268881612c32565b600060208284031215612809578081fd5b815161268881612c32565b600060208284031215612825578081fd5b813561268881612c40565b600060208284031215612841578081fd5b815161268881612c40565b60006020828403121561285d578081fd5b813567ffffffffffffffff811115612873578182fd5b8201601f81018413612883578182fd5b61198f848235602084016125d8565b6000602082840312156128a3578081fd5b5035919050565b6000602082840312156128bb578081fd5b5051919050565b600081518084526128da816020860160208601612ac3565b601f017fffffffffffffffffffffffffffffffffffffffffffffffffffffffffffffffe0169290920160200192915050565b6000815161291e818560208601612ac3565b9290920192915050565b600080845482600182811c91508083168061294457607f831692505b602080841082141561297d577f4e487b710000000000000000000000000000000000000000000000000000000087526022600452602487fd5b81801561299157600181146129c0576129ec565b7fffffffffffffffffffffffffffffffffffffffffffffffffffffffffffffff008616895284890196506129ec565b60008b815260209020885b868110156129e45781548b8201529085019083016129cb565b505084890196505b505050505050612a286129ff828661290c565b7f2e6a736f6e000000000000000000000000000000000000000000000000000000815260050190565b95945050505050565b60006001600160a01b03808716835280861660208401525083604083015260806060830152612a6360808301846128c2565b9695505050505050565b60208152600061268860208301846128c2565b60008219821115612a9357612a93612b90565b500190565b600082612aa757612aa7612bbf565b500490565b600082821015612abe57612abe612b90565b500390565b60005b83811015612ade578181015183820152602001612ac6565b838111156113b15750506000910152565b600181811c90821680612b0357607f821691505b60208210811415612b3d577f4e487b7100000000000000000000000000000000000000000000000000000000600052602260045260246000fd5b50919050565b60007fffffffffffffffffffffffffffffffffffffffffffffffffffffffffffffffff821415612b7557612b75612b90565b5060010190565b600082612b8b57612b8b612bbf565b500690565b7f4e487b7100000000000000000000000000000000000000000000000000000000600052601160045260246000fd5b7f4e487b7100000000000000000000000000000000000000000000000000000000600052601260045260246000fd5b7f4e487b7100000000000000000000000000000000000000000000000000000000600052604160045260246000fd5b6001600160a01b038116811461131b57600080fd5b801515811461131b57600080fd5b7fffffffff000000000000000000000000000000000000000000000000000000008116811461131b57600080fdfea26469706673582212208704f9f5af7d7e8ebe0ef7c7b5724332f87803f1e0f2348d89f4e153f022245c64736f6c63430008040033697066733a2f2f516d52674a756f7a7572794d31577956426436756578667654597553747339507577326d48737451364c654e5765697066733a2f2f516d5533315254376d51756a7869323436737368776f736a6158726b7470646d6f32375961426868386f716b6533",
  "linkReferences": {},
  "deployedLinkReferences": {}
}